:04000000020049327F
:01000B0032C2
:0100130032BA
:01001B0032B2
:0100230032AA
:01002B0032A2
:01003300329A
:01003B003292
:030043000200F7C1
:10005C00785376007854760078AD760078AE7601D9
:10006C0078AF76FF78B0760278B176FF78B276000A
:10007C0078B376FE78B4760178B5760178B676FEEC
:10008C0078B7760078B876FF78B9760278BA76FFCA
:08009C0078BB760178BC760008
:0300F400020046C1
:0300460002066847
:1000F700C022C0E0C0F0C082C083C007C006C005F0
:10010700C004C003C002C001C000C0D075D0001237
:100117001504D0D0D000D001D002D003D004D00530
:10012700D006D007D083D082D0F0D0E0D02232C220
:10013700AF782686827827860F78288610120E9544
:1001470078298682782A860F782B8610120E957862
:100157002C8682782D860F782E8610120E95D2AFB8
:1001670022E582FF70127582011201687582021200
:100177000168758203020168EF75F003A4FF242369
:10018700F8A608EF2423FF04F8A60974022FF8A69F
:100197000A22E582FF7012758201120199758202A7
:1001A7001201997582030201997853E675F003A449
:1001B700FE243BF98708EE243BFE04F98709740205
:1001C7002EF9870A8F82020168E582FF7012758215
:1001D700011201D07582021201D07582030201D08B
:1001E7007853E675F003A4FE242FF98708EE242F31
:1001F700FE04F9870974022EF9870A8F82020168C3
:10020700AF82C3E51B9F4004851B8222C3EF951A6B
:100217005004851B8222EFC3951AFFC3E51A951B6D
:100227005004851B82228F8222E582FF701275821D
:100237000112023075820212023075820302023007
:10024700EF75F003A4FF2423F987827853E675F04E
:1002570003A4FE2447F8861AEE242FF8861BC0074E
:10026700C001120207E582D001D007F7EF2423FF70
:1002770004F987827853E675F003A4FE244704F84F
:10028700861AEE242F04F8861BC007C00112020746
:10029700E582D001D007F774022FF987827853E6F9
:1002A70075F003A4FF24472402F8861AEF242F24AD
:1002B70002F8861BC001120207E582D001F722AFC0
:1002C700827E00751A648E1B8F828E83C007C006DC
:1002D7001216D3AC8274302CF58212100BD006D0D4
:1002E70007751A64751B008F828E83C007C00612BC
:1002F700169D751A0A751B001216D3AC8274302C22
:10030700F58212100BD006D007751A0A751B008FDD
:10031700828E8312169DAE8274302EF58202100BE8
:1003270075822C12100B75822002100BAF82785445
:10033700E624FC500478547603EF70047853F622D1
:100347007854E624FC40537854E62690035673808D
:10035700068009800C802478537600227853760330
:1003670022C374808FF063F08095F0500578537640
:100377000222EF30E724785376032278538606EF7C
:100387002E7853F67853E624FC5004785376017898
:1003970053B6010050047853760322AF8278538610
:1003A7000B8F82C0071203F1D0077853E6703A78B3
:1003B70054B6030050337854E624FD400C750B0106
:1003C7008F82C0071203F1D0077854E624FE400C51
:1003D700750B028F82C0071203F1D0077854E670BD
:1003E70008750B038F820203F122AF827E007D0026
:1003F700EF24F45003020515EF240A83F582EF2456
:100407001083F583E4731525374E657C93A9BFD513
:10041700EB01050404040404040404040405E50BC7
:1004270075F016A42455F904F88606870502051504
:10043700E50B75F016A42455FF2403F9870674020B
:100447002FF98705020515E50B75F016A42455FF4E
:100457002405F9870674042FF98705020515E50BAE
:1004670075F016A42455FF2407F9870674062FF99B
:100477008705020515E50B75F016A42455FF240919
:10048700F9870674082FF98705020515E50B75F03E
:1004970016A42455FF240BF98706740A2FF987053C
:1004A700806CE50B75F016A42455FF240DF987061B
:1004B700740C2FF987058056E50B75F016A42455A3
:1004C700FF240FF98706740E2FF987058040E50B87
:1004D70075F016A42455FF2411F9870674102FF917
:1004E7008705802AE50B75F016A42455FF2412F919
:1004F700870674142FF987058014E50B75F016A489
:100507002455FF2413F9870674152FF98705EE7014
:100517000122BDFF0B8E047F008C828F8302116F37
:100527008D0C8E8202052EAF82E50CFE30E00E7533
:100537008280C007C006120F06D006D007EE30E152
:100547000E758281C007C006120F06D006D007EECF
:1005570030E20E758282C007C006120F06D006D0A1
:1005670007EE30E30E758283C007C006120F06D070
:1005770006D007EE30E40E758284C007C006120F5E
:1005870006D006D007EE30E50E758285C007C00697
:10059700120F06D006D007EE30E60E758286C0072A
:1005A700C006120F06D006D007EE30E70E75828719
:1005B700C007C006120F06D006D0078F82C00612EA
:1005C700100BD006EE30E70A758287C006120F942B
:1005D700D006EE30E60A758286C006120F94D00662
:1005E700EE30E50A758285C006120F94D006EE300C
:1005F700E40A758284C006120F94D006EE30E30A2F
:10060700758283C006120F94D006EE30E20A758217
:1006170082C006120F94D006EE30E10A758281C0BF
:1006270006120F94D006EE30E006758280020F9412
:1006370022AF827585C0EF2FF58475868E858E82F1
:1006470022900119120E387F0975827FC007120E9A
:100657007FD007DFF475E200C2AF7589001238005A
:1006670022C200C201C202C2037F0078BD760078B1
:10067700BE760078BF7600C2047B0078C07600C2E1
:10068700B45396EF43971020910BC007C00312068F
:1006970048D003D00775A15575A1AA53B9F843B936
:1006A7000575A100900005C007C003120E5712156B
:1006B700A1D003D00775FF0075A15575A1AA43B155
:1006C7000175A1007C00C003ECC42354E0FBEC756A
:1006D700F016A4FD2455F98B820BC007C005C00492
:1006E700C003C001120638E582D001D003D004D080
:1006F70005F7ED2455FD04F98B820BC005C004C036
:1007070003C001120638E582D001D003D004D0051A
:10071700F774022DF98B820BC005C004C003C0011A
:10072700120638E582D001D003D004D005F7740350
:100737002DF98B820BC005C004C003C00112063817
:10074700E582D001D003D004D005F774042DF98BCE
:10075700820BC005C004C003C001120638E582D071
:1007670001D003D004D005F774052DF98B820BC097
:1007770005C004C003C001120638E582D001D003CA
:10078700D004D005F774062DF98B820BC005C00481
:10079700C003C001120638E582D001D003D004D0CF
:1007A70005F774072DF98B820BC005C004C003C081
:1007B70001120638E582D001D003D004D005F774C2
:1007C700082DF98B820BC005C004C003C0011206B7
:1007D70038E582D001D003D004D005F774092DF98C
:1007E7008B820BC005C004C003C001120638E58226
:1007F700D001D003D004D005F7740A2DF98B820BF2
:10080700C005C004C003C001120638E582D001D07C
:1008170003D004D005F7740B2DF98B820BC005C0EC
:1008270004C003C001120638E582D001D003D0040A
:10083700D005F7EC75F003A4FE243BF98B820BC0BF
:1008470006C005C004C003C001120638E582D00106
:10085700D003D004D005D006F7EE243BF50D04F500
:100867000E8B820BC006C005C004C003120638E514
:1008770082D003A80EF67402250DF98B820BC003F4
:10088700C001120638E582D001D003F78B820BC076
:1008970003C001120638E582D001D003D004D00589
:1008A7007854F6740C2DF88B820BC005C004C00376
:1008B700C001C000120638E582D000D001D003D0B5
:1008C70004D005F6740D2DF88B820BC005C004C04B
:1008D70003C001C000120638E582D000D001D00362
:1008E700D004D005F6740E2DF88B820BC005C0041A
:1008F700C003C001C000120638E582D000D001D085
:1009070003D004D005F6740F2DF88B820BC005C0F9
:1009170004C003C001C000120638E582D000D00130
:10092700D003D004D005F674102DF88B820BC005C8
:10093700C004C003C001C000120638E582D000D051
:1009470001D003D004D005F674112DF88B820BC0AB
:1009570005C004C003C001C000120638E582D000FC
:10096700D001D003D004D005F674122DF88B820B7A
:10097700C005C004C003C001C000120638E582D01C
:1009870000D001D003D004D005F674132DF88B8264
:100997000BC005C004C003C001C000120638E582C1
:1009A700D000D001D003D004D005D006F6EE2447FE
:1009B700F88B820BC006C005C004C003C001C0008D
:1009C700120638E582D000D001D003D004D005D07C
:1009D70006F6EE2447FA04F88B820BC006C005C062
:1009E70004C003C002C001C000120638E582D0006F
:1009F700D001D002D003F674022AF88B820BC00311
:100A0700C001C000120638E582D000D001D003D063
:100A170004D005F674142DF88B820BC005C004C0F2
:100A270003C001C000120638E582D000D001D00310
:100A3700D004D005D006F6EE242FF88B820BC00623
:100A4700C005C004C003C001C000120638E582D04B
:100A570000D001D003D004D005D006F6EE242FFE37
:100A670004F88B820BC006C005C004C003C001C0D8
:100A770000120638E582D000D001D003D004D0059B
:100A8700D006F674022EF88B820BC005C004C00393
:100A9700C001C000120638E582D000D001D003D0D3
:100AA70004D005F674152DF88B82C004C003C0016D
:100AB700C000120638E582D000D001D003D004D0A0
:100AC70007F6A80D8606A80EE64206E74ED0037085
:100AD70008A80D76FFA80E7616EC75F003A4FE2481
:100AE7002FF98705EE242FF904F8E6420574022949
:100AF700FEC000A8068606D000EE4D7004770C767F
:100B070001EC75F003A42447F9E770027701EC754F
:100B1700F003A4244704F9E770027701EC75F003AA
:100B2700A424472402F9E7700277010CEC24FC4067
:100B3700030206CD785686067858E64206785AE6C6
:100B47004E7051782676FF7827760078287600C091
:100B570007C0031201369000C8120E577826760098
:100B67001201369000C8120E57782676FF1201360A
:100B77009000C8120E57782676001201369000C8EA
:100B8700120E57782676FF1201369000C8120E57BC
:100B9700D003D007758201C007C00312019975827F
:100BA70002120199758203120199D003D007A2910D
:100BB700B39205200001B34002B200A297B3920599
:100BC700200101B34002B201A296B39205200201AF
:100BD700B34002B2027E003000177E014307017561
:100BE7008201C007C006C003120199D003D006D006
:100BF70007300118430602430702758202C007C087
:100C070006C003120199D003D006D007300218435B
:100C17000604430704758203C007C006C003120118
:100C270099D003D006D007EE7067EF24F9405AEF4A
:100C37002F900C3C738052800A8014802A801C807D
:100C470032803C758201C0031203A2D003803A753B
:100C57008202C0031203A2D003802E758203C00351
:100C67001203A2D0038022758207C0031203A2D009
:100C7700038016758209C0031203A2D003800A7588
:100C87008208C0031203A2D0037F0078BD760080DC
:100C970018BE071578BD0678BDE62437500BC00788
:100CA700C003120648D003D007A2B3B392052003AE
:100CB70001B3401BB203300302C204200311200416
:100CC7000E758204C007C0031203A2D003D00774B5
:100CD700035BFEA2B1B39205E43325E025E04206AB
:100CE700A2B0B39205E433C40354F8FD4206EE0301
:100CF70003543FFBEE24ADF9870678C0EE26F67E57
:100D07000078C0C3E66480948440087EFF78C016EC
:100D170016161678C0C3747C86F063F08095F04091
:100D2700087E0178C0E62404F630037BEE604AD2E1
:100D3700047854E660138E82C007C003120333D0D1
:100D470003D00778BF763C8030C374808EF063F0A1
:100D57008095F0501275820BC007C006C0031203BE
:100D6700A2D003D006D007EE30E70E75820AC0077F
:100D7700C0031203A2D003D0077854E6605D78BEA3
:100D8700E624375010758200C007C003120333D022
:100D970003D007D20430040A78BF763C78BE7600C9
:100DA700803978BE068034C374808EF063F08095F6
:100DB700F05012758206C007C006C0031203A2D006
:100DC70003D006D007EE30E70E758205C007C003D3
:100DD7001203A2D003D00778BE7600C007C0031263
:100DE7000136758200120230D003D00778BFE66063
:100DF7002C78BF167853E675F003A4FE243BF987D9
:100E070008EE243BFE04F9870974022EF9870A7558
:100E17008200C007C003120168D003D00790000505
:100E2700C007C003120E57D003D00775FF00020B8F
:100E3700B5AE82AF83EE4F6016E5A104F5A1E5A13B
:100E470004F5A1E5A104F5A11EBEFF011F80E6225E
:100E5700AE82AF83EE4F60159003E8C007C006125D
:0E0E67000E38D006D0071EBEFF011F80E72206
:100E7600C007AF82DFFED007227F08C58233D2B417
:100E860092B4000000000000C2B40000DFEF22AF01
:100E960082850F82C007120E7FD0078F82120E7FC7
:100EA600851082020E7FE582FF23235403FE53073B
:100EB6003FAD118DF005F0EF800225E0D5F0FBFF88
:100EC6008DF005F0743F800225E0D5F0FB8F04C35A
:100ED6009CFDBE0002800ABE0102800FBE02208079
:100EE600148F0F7510008D82020E958D0F8F107561
:100EF6008200020E95750F008D108F82020E9522CC
:1000A4009001007401F0900101E4F0900102F090DD
:1000B4000103F0900104F0900105F0900106F09026
:1000C4000107F0900108F09001097402F090010A10
:1000D400E4F090010BF090010CF090010DF0900110
:0E00E4000EF090010FF0900110F0900111F05D
:100F0600AF82BF880040088F06EE2478FE8040BF7F
:100F160080004023900101E0FD8F04EC2480F5F071
:100F260005F07401800225E0D5F0FBFC4205900136
:100F360001EDF07E008018EF90170F93FE700122EE
:100F4600EE30E70B900101E04402FFF053067F7F8D
:100F560003EF2400F582E43401F583E0FDB50601D4
:100F6600220FBF090040EA7F03EF2400FCE43401AE
:100F7600FD8C828D83E0700F8C828D83EEF0751A66
:100F8600099001000215A80FBF090040DC22AF82BC
:100F9600BF880040088F06EE2478FE8041BF80009F
:100FA6004024900101E0FD8F04EC2480F5F005F06B
:100FB6007401800225E0D5F0FBF4FC520590010196
:100FC600EDF07E008018EF90170F93FE700122EE71
:100FD60030E70B900101E054FDFFF053067F7F03DD
:100FE600EF2400FCE43401FD8C828D83E0B5060617
:100FF6008C828D83E4F00FBF090040E4751A0990D6
:1010060001000215A8AF82C007120F06D0078F8213
:10101600020F947F08EF2400F582E43401F583E49F
:10102600F0DFF2751A099001000215A8AD82AE83B1
:10103600AFF08D828E838FF0121681FC60188C8241
:101046000DBD00010EC007C006C00512100BD0056D
:10105600D006D00780DC22AE82AF837D018F037C71
:1010660000ED2409F582E43401F583E0F97A00E91C
:10107600B50624EAB507208D020AEAF93395E0FAA7
:10108600E92409F582EA3401F583E0F97A00E9B545
:101096000305EAB50401228D0274022AFDBD09008A
:1010A60040BF7D01ED2409FBE43401FC8B828C8377
:1010B600E0703D8D02EA04F83395E0F9E82409F87A
:1010C600E93401F988828983E070258E018B828C50
:1010D60083E9F00AEA3395E0FCEA2409F582EC3468
:1010E60001F5838F04ECF0751A099001090215A821
:1010F6008D0474022CFDBD090040A922858212854B
:1011060083137D01AB137C00ED2409F9E43401FA65
:1011160089828A83E0F87F00B5123AEFB513368DDF
:1011260007EF04F83395E0FEE82409F582EE340172
:10113600F583E0F87E00B5031CEEB5041889828AB3
:1011460083E4F00FEF3395E0FEEF2409F582EE34E9
:1011560001F583E4F08D0774022FFDBD090040A858
:10116600751A099001090215A8AE82AF83C007C09F
:101176000612105DD006D0078E828F830211027F81
:1011860008EF2409F582E43401F583E4F0DFF27513
:0F1196001A099001090215A8900052E0F5822273
:10170F0000000000000000002A2B2800000000004D
:10171F0000000000000000000000000000000000BA
:10172F002C9EB4A0A1A2A434A6A7A5AE362D3738FF
:10173F00271E1F20212223242526B333B62EB7B808
:10174F009F8485868788898A8B8C8D8E8F909192C6
:10175F00939495969798999A9B9C9D2F3130A3AD12
:10176F00350405060708090A0B0C0D0E0F10111290
:10177F00131415161718191A1B1C1DAFB1B0B5008D
:10178F001201100100000040891190880001010230
:10179F000301090229000101008019090400000258
:1017AF0003010104092110012101225F00070581B6
:1017BF000310000A0705020310000A05010906A11C
:1017CF00018501050719E029E71500250195087521
:1017DF00018102950175088103950675081500268C
:1017EF00FF000507190029E78100050819012905E0
:1017FF00150025019505750191029501750391035A
:10180F00C0050C0901A1018502150026FF0319006F
:10181F002AFF03950475108100C05F0403090418A3
:10182F000377006100670069006D0069006E006159
:10183F000074006F00720012034D006100630072AC
:10184F00006F00500061006400140343004800352E
:10185F00003500320078004800490044001A034860
:10186F0000490044002D004B006500790062006FB5
:07187F00006100720064002B
:1011A500C007AF8205A290000015A2851882851997
:1011B50083E493A3A5DFFAD00722AFDBBF08028043
:1011C5000302147D900007E0FE7F00900006E0FD1D
:1011D5007C004FF514EC4EF5157F00900001E0F50D
:1011E50016900000E0FE546060057FFF02147FE565
:1011F5001624F45003021479E516240B83F582E5D1
:1012050016241083F583E4735B4979BA7918257937
:1012150025407F7F1413141314131214131314147D
:10122500900003E0FEBE01028012BE02028017BEDE
:101235000302801CBE220280690212BF75188F75D9
:1012450019177F1280767518A17519177F29806C7B
:10125500900002E0FE24FB4038EE2E90126473806D
:1012650008800E8014801A802075182A7519188038
:101275002675182E751918801E751846751918804B
:1012850016751858751918800E75186C751918800B
:1012950006751858751918851882851983E493FF02
:1012A500801A900002E0700E7518CA75191790180B
:1012B50029E493FF80067FFF80027FFFBFFF0302C3
:1012C500147F8F057E00C3ED9514EE951550048DA2
:1012D500148E15AD14AE15C3ED9440EE9400920630
:1012E50040067D407E008004AD14AE158D078F82CB
:1012F5001211A58F057E00AB14AC15EBC39DFBEC5D
:101305009EFC8B148C15EF2518F518E43519F51985
:1013150002147F900002E0FE8E1475150002147F02
:10132500900000E517F0AD14AE15C3ED9401EE94F1
:1013350000500302147F7F0102147F900002E0F544
:101345001702147F900000E0541F702F900003E0F7
:10135500FD7E00900002E0FC7B004206EB4205BEEC
:101365000114BD00119017A8E493FE30E5030214A3
:101375007F7FFF02147F7FFF02147F900000E0FE55
:1013850053061F7D00BE0228BD0025900004E0FE27
:10139500BE02028005BE8113800653D47302147FFA
:1013A50074BC55D24402F5D202147F7FFF02147F2C
:1013B5007FFF02147F900000E0541F702F90000300
:1013C500E0FD7E00900002E0FC7B004206EB42055A
:1013D500BE0114BD00119017A8E493FE30E5030289
:1013E500147F7FFF02147F7FFF02147F900000E0CF
:1013F500FE53061F7D00BE0259BD0056900003E056
:10140500FD7E00900002E0FC7B004206EB4205EE0B
:101415004D703B900005E0FD7E00900004E0FC7BF4
:10142500004206EB4205BE0205BD00028008BE81F2
:1014350019BD0016800A747F55D4440CF5D4803A42
:1014450074BF55D24403F5D280307FFF802C7FFFD7
:1014550080287FFF8024900000E4F0900001F0AD2B
:1014650014AE15C3ED9402EE940040047F02800A89
:10147500AF1480067FFF80027FFFBFFF077516FF51
:1014850075DCCF22EF24BF40068FDD75DCC02275E9
:10149500DD0075DCC0227405B5160280467406B5FC
:1014A500164FAE14AF15C3EE9440EF94009207406B
:1014B500067E407F008004AE14AF158E821211A502
:1014C5008E057F00AB14AC15EBC39DFBEC9FFC8B2D
:1014D500148C15EE2518F518E43519F5198EDD630C
:1014E500DC4022E5E35480FFE5144FF5E375DC02AB
:1014F5002275DD0075DC022275DD0043DC02223039
:10150500D95CE5D9540FFFADD95305307E00BD0038
:1015150005BE00028018BD1005BE0002803EBD203C
:1015250005BE0002801CBD3033BE00308028BF00E0
:10153500028005BF022680051214FD801F12160ABF
:10154500801ABF00028005BF0112800512149B801E
:101555000B1215FC8006BF00031211BFC2D930D88B
:101565000F75DC021215F375E300C2DAC2D9C2D8D1
:1015750010DA0122E5DA20E20375D8FF2275E229A7
:1015850075D181E4F5ECF5ED75DC021215DA43E170
:0C1595000743D81FD2EAD2AF75DD002258
:0200F200C20842
:1015A10012158275D30022AE82AF832008FD7D0023
:1015B100C3ED951A501AED2440FBE43400FCED2EE6
:1015C100F582E43FF583E0FA8B828C83F00D80E0B5
:1015D100851AD3D20853D2FC2275EE4075EF0075FF
:1015E100E45275E50075D21275D41075EA4075EBB9
:1015F100082275D21275D410C2082275D30074FC6A
:0A16010055D24402F5D2C20822229D
:06005600E478FFF6D8FD7E
:10160B00E51A451B60467A01E51A25E0F51AE51B3C
:10161B00334012F51BE582951AE583951B40030AAF
:10162B0080E6C3E51B13F51BE51A13F51AC3E58218
:10163B00951AF5F0E583951B4005F58385F082C37C
:10164B00E51B13F51BE51A13F51ADAE1227A10E400
:10165B00FBFCE58225E0F582E58333F583EB33FB79
:10166B00EC33FCEB951AF5F0EC951B4006FCABF05C
:06167B00438201DADD22CA
:0D0049007581C012170BE5826003020046AE
:1016810020F71430F6148883A88220F507E6A88392
:1016910075830022E280F7E49322E022C2D5E5833C
:1016A10030E70DD2D5E4C39582F582E49583F583C5
:1016B100E51B30E70BE4C3951AF51AE4951BF51BFE
:1016C10012160B30D50BE4C39582F582E49583F5B0
:1016D1008322C2D5E58330E70DD2D5E4C39582F5E7
:1016E10082E49583F583E51B30E70DB2D5E4C3951C
:1016F1001AF51AE4951BF51B12165830D50BE4C3E5
:0E1701009582F582E49583F58322758200229D
:00000001FF
