:04000000020049327F
:01000B0032C2
:0100130032BA
:01001B0032B2
:0100230032AA
:01002B0032A2
:01003300329A
:01003B003292
:0300430002011D9A
:10005C00C200C201C20278C3760078C4760078C5AB
:10006C007600C20478C67600C205785376007854C0
:10007C007600785576007856760078B2760078B3AC
:10008C00760178B476FF78B5760278B676FF78B7D5
:10009C00760078B876FE78B9760178BA760178BBB6
:1000AC0076FE78BC760078BD76FF78BE760278BF97
:0E00BC0076FF78C0760178C1760078C27600B3
:03011A000200469A
:0300460002092389
:10011D00C022C0E0C0F0C082C083C007C006C005C9
:10012D00C004C003C002C001C000C0D075D0001211
:10013D0016CAD0D0D000D001D002D003D004D00543
:10014D00D006D007D083D082D0F0D0E0D02232C2FA
:10015D00AF782686827827860D7828860E12105B5A
:10016D0078298682782A860D782B860E12105B7878
:10017D002C8682782D860D782E860E12105BD2AFCE
:10018D0022E582FF701275820112018E75820212B4
:10019D00018E75820302018EEF75F003A4FF2423F7
:1001AD00F8A608EF2423FF04F8A60974022FF8A679
:1001BD000A22E582FF70127582011201BF7582025B
:1001CD001201BF7582030201BF7853E675F003A4D7
:1001DD00FE243BF98708EE243BFE04F987097402DF
:1001ED002EF9870A8F8202018EE582FF70127582C9
:1001FD00011201F67582021201F67582030201F6F3
:10020D007853E675F003A4FE242FF98708EE242F0A
:10021D00FE04F9870974022EF9870A8F8202018E76
:10022D00AF82C3E5199F400485198222C3EF95184B
:10023D00500485198222EFC39518FFC3E51895194F
:10024D005004851982228F8222E582FF70127582F9
:10025D00011202567582021202567582030202566F
:10026D00EF75F003A4FF2423F987827853E675F028
:10027D0003A4FE2447F88618EE242FF88619C0072C
:10028D00C00112022DE582D001D007F7EF2423FF24
:10029D0004F987827853E675F003A4FE244704F829
:1002AD008618EE242F04F88619C007C00112022DFE
:1002BD00E582D001D007F774022FF987827853E6D3
:1002CD0075F003A4FF24472402F88618EF242F2489
:1002DD0002F88619C00112022DE582D001F722AF76
:1002ED00827E007518648E198F828E83C007C006BA
:1002FD00121899AC8274302CF5821211D1D006D01F
:10030D00077518647519008F828E83C007C0061299
:10031D00186375180A751900121899AC8274302C6F
:10032D00F5821211D1D006D00775180A7519008FF4
:10033D00828E83121863AE8274302EF5820211D133
:10034D0075822C1211D17582200211D1AF82785491
:10035D00E624FC500478547603EF70047853F622AB
:10036D007854E624FC40537854E62690037C738041
:10037D00068009800C80247853760022785376030A
:10038D0022C374808FF063F08095F050057853761A
:10039D000222EF30E724785376032278538606EF56
:1003AD002E7853F67853E624FC5004785376017872
:1003BD0053B6010050047853760322AF82BF01007B
:1003CD00500122EF24FC500122EF2456F97F0087C3
:1003DD0006C3EF9E5011900064C007C00112101D9E
:1003ED00D001D0070F80E822AF827853860B8F8221
:1003FD00C00712045BD0077853E670517854E62499
:10040D00FD4016758201C0071203C8D007750B0198
:10041D008F82C00712045BD0077854E624FE401685
:10042D00758202C0071203C8D007750B028F82C0F8
:10043D000712045BD0077854E67012758203C0076B
:10044D001203C8D007750B038F8202045B22AF82A3
:10045D00E4FEFDEF24F4500302057EEF240A83F53C
:10046D0082EF241083F583E4737E8EA0B7CEE5FC76
:10047D0012283E546A050404040404040505050508
:10048D0005E50B75F016A4245AF904F886068705C0
:10049D0002057EE50B75F016A4245AFF2403F98797
:1004AD000674022FF9870502057EE50B75F016A47B
:1004BD00245AFF2405F9870674042FF987050205D0
:1004CD007EE50B75F016A4245AFF2407F9870674F0
:1004DD00062FF9870502057EE50B75F016A4245A43
:1004ED00FF2409F9870674082FF9870502057EE5B3
:1004FD000B75F016A4245AFF240BF98706740A2FE6
:10050D00F98705806CE50B75F016A4245AFF240DB0
:10051D00F98706740C2FF987058056E50B75F016D3
:10052D00A4245AFF240FF98706740E2FF98705802E
:10053D0040E50B75F016A4245AFF2411F9870674B3
:10054D00102FF98705802AE50B75F016A4245AFFA4
:10055D002412F9870674142FF987058014E50B759D
:10056D00F016A4245AFF2413F9870674152FF98762
:10057D0005EE700122BDFF028003020651BEF000A0
:10058D005003020646BEF000500302063DEE240263
:10059D00500302063DEE2410FF240A83F582EF245A
:1005AD001283F583E473CFDBE1E73DEDF3F9FF3D16
:1005BD0005113D1D0505050506050505050606067E
:1005CD000606758200C006120359D0068062785364
:1005DD007601805C7853760280567853760380508E
:1005ED0078547600804A78547601804478547602A7
:1005FD00803E7854760380387582FFC00612035909
:10060D00D006802C758201C006120359D0068020B9
:10061D00785386047F0075180A8F198C828F83C0DA
:10062D0006121863AC8274302CF5821211D1D006EB
:10063D00BEFF01227855763C228E047F008C828F7E
:10064D00830213358D0C8E82020658AF82E50CFEA7
:10065D0030E00E758280C007C0061210CCD006D0D7
:10066D0007EE30E10E758281C007C0061210CCD0A6
:10067D0006D007EE30E20E758282C007C00612105A
:10068D00CCD006D007EE30E30E758283C007C006CE
:10069D001210CCD006D007EE30E40E758284C00760
:1006AD00C0061210CCD006D007EE30E50E7582854F
:1006BD00C007C0061210CCD006D007EE30E60E757E
:1006CD008286C007C0061210CCD006D007EE30E7E8
:1006DD000E758287C007C0061210CCD006D0078FCA
:1006ED0082C0061211D1D006EE30E70A758287C09E
:1006FD000612115AD006EE30E60A758286C0061231
:10070D00115AD006EE30E50A758285C00612115ACF
:10071D00D006EE30E40A758284C00612115AD00656
:10072D00EE30E30A758283C00612115AD006EE3000
:10073D00E20A758282C00612115AD006EE30E10A25
:10074D00758281C00612115AD006EE30E006758210
:10075D008002115A22AF827585C0EF2FF584758600
:10076D008E858E8222A291B39203200001B34002A6
:10077D00B200A297B39203200101B34002B201A2CD
:10078D0096B39203200201B34002B20278C4760000
:10079D0030001078C4760178C3E64401F675820105
:1007AD001201BF30011278C4E64402F678C3E64464
:1007BD0002F67582021201BF30021278C4E64404BB
:1007CD00F678C3E64404F67582031201BF78C4E6D9
:1007DD00705478C3E624F9404478C3E6269007EEBA
:1007ED0073803A800A8010801E80148022802875C4
:1007FD0082011203F580267582021203F5801E75A3
:10080D0082031203F580167582071203F5800E75AB
:10081D0082091203F580067582081203F578C376F6
:10082D000078C576002278C4B6070D78C50678C560
:10083D00E624375003020903227F00A2B3B39206C8
:10084D00200401B34017B204300402C20520040D88
:10085D0020050A758204C0071203F5D00778C2C3BC
:10086D00E66480948440087FFF78C21616161678C9
:10087D00C2C3747C86F063F08095F040087F0178E8
:10088D00C2E62404F6300449EF6022D205C3748019
:10089D008FF063F08095F0500A75820BC00712033C
:1008AD00F5D007EF30E70675820A1203F57854E6A6
:1008BD00604378C6E624375008758200120359D27A
:1008CD00053005097855763C78C676002278C6063F
:1008DD0022C374808FF063F08095F0500A75820604
:1008ED00C0071203F5D007EF30E706758205120336
:1008FD00F578C6760022900119120FFE7F097582D8
:10090D007FC007121045D007DFF475E200C2AF7546
:10091D008900123800227F0078C87600C2B4539641
:10092D00EF439710209107C007120903D00775A157
:10093D005575A1AA53B9F843B90575A100900005E5
:10094D00C00712101D121767D00775FF0075A1554E
:10095D0075A1AA43B10175A10078C77600C00778CB
:10096D00C7E6C42354E0FC78C7E675F016A4FB2453
:10097D005AF98C820CC007C004C003C00112076273
:10098D00E582D001D003D004F7EB245AFB04F98C97
:10099D00820CC004C003C001120762E582D001D0F1
:1009AD0003D004F774022BF98C820CC004C003C071
:1009BD0001120762E582D001D003D004F774032B36
:1009CD00F98C820CC004C003C001120762E582D00D
:1009DD0001D003D004F774042BF98C820CC004C031
:1009ED0003C001120762E582D001D003D004F77471
:1009FD00052BF98C820CC004C003C001120762E5FF
:100A0D0082D001D003D004F774062BF98C820CC070
:100A1D0004C003C001120762E582D001D003D004E7
:100A2D00F774072BF98C820CC004C003C0011207A8
:100A3D0062E582D001D003D004F774082BF98C82C3
:100A4D000CC004C003C001120762E582D001D003BF
:100A5D00D004F774092BF98C820CC004C003C001BB
:100A6D00120762E582D001D003D004F7740A2BF986
:100A7D008C820CC004C003C001120762E582D00154
:100A8D00D003D004F7740B2BF98C820CC004C00377
:100A9D00C001120762E582D001D003D004F778C7F8
:100AAD00E675F003A4FA243BF98C820CC004C00354
:100ABD00C002C001120762E582D001D002D003D07E
:100ACD0004F7EA243BF904F88C820CC004C003C07F
:100ADD0002C001C000120762E582D000D001D00231
:100AED00D003D004D007F6740229FF8C820CC00706
:100AFD00C004C003C002C001C000120762E582D06D
:100B0D0000D001D002D003D004D007C000A807F652
:100B1D0078C7E62456FED0008C820CC007C006C0F4
:100B2D0004C003C002C001C000120762E582D000FC
:100B3D00D001D002D003D004D006D007C000A80643
:100B4D00F6D000740C2BFE8C820CC007C006C004BE
:100B5D00C003C002C001C000120762E582D000D000
:100B6D0001D002D003D004D006D007C000A806F6ED
:100B7D00D000740D2BFE8C820CC007C006C004C0C3
:100B8D0003C002C001C000120762E582D000D0018F
:100B9D00D002D003D004D006D007C000A806F6D0EE
:100BAD0000740E2BFE8C820CC007C006C004C0035F
:100BBD00C002C001C000120762E582D000D001D092
:100BCD0002D003D004D006D007C000A806F6D0008E
:100BDD00740F2BFE8C820CC007C006C004C003C06E
:100BED0002C001C000120762E582D000D001D00220
:100BFD00D003D004D006D007C000A806F6D00074EC
:100C0D00102BFE8C820CC007C006C004C003C002AE
:100C1D00C001C000120762E582D000D001D002D021
:100C2D0003D004D006D007C000A806F6D00074117A
:100C3D002BFE8C820CC007C006C004C003C002C0CE
:100C4D0001C000120762E582D000D001D002D003AE
:100C5D00D004D006D007C000A806F6D00074122B21
:100C6D00FE8C820CC007C006C004C003C002C001C8
:100C7D00C000120762E582D000D001D002D003D0AF
:100C8D0004D006D007C000A806F6D00074132BFEC2
:100C9D008C820CC007C006C004C003C002C001C0D6
:100CAD0000120762E582D000D001D002D003D0043B
:100CBD00D006D007C000A806F6D000EA2447FE8C67
:100CCD00820CC007C006C004C003C002C001C00032
:100CDD00120762E582D000D001D002D003D004D03B
:100CED0006D007C000A806F6D000EA2447FE04FD92
:100CFD008C820CC007C006C005C004C003C002C072
:100D0D0001C000120762E582D000D001D002D003ED
:100D1D00D004D005D006D007C000A805F6D0000E2F
:100D2D000E8C820CC007C006C004C003C002C001F7
:100D3D00C000120762E582D000D001D002D003D0EE
:100D4D0004D006D007C000A806F6D00074142BFE00
:100D5D008C820CC007C006C004C003C002C001C015
:100D6D0000120762E582D000D001D002D003D0047A
:100D7D00D006D007C000A806F6D000EA242FFE8CBE
:100D8D00820CC007C006C004C003C002C001C00071
:100D9D00120762E582D000D001D002D003D004D07A
:100DAD0006D007C000A806F6D000EA242FFA04FEEC
:100DBD008C820CC007C006C004C003C002C001C0B5
:100DCD0000120762E582D000D001D002D003D0041A
:100DDD00D006D007C000A806F6D00074022AFE8CFB
:100DED00820CC007C006C004C003C001C0001207BA
:100DFD0062E582D000D001D003D004D006D007C068
:100E0D0000A806F6D00074152BFE8C82C007C00614
:100E1D00C001C000120762E582D000D001D006D01B
:100E2D0007C000A806F6D0008706E64206C000A857
:100E3D00078607D000EF4ED007700477FF7616783F
:100E4D00C7E675F003A4FE242FF98705EE242FF9CC
:100E5D0004F8E64205740229FEC000A8068606D0F5
:100E6D0000EE4D7004770C760178C7E675F003A49B
:100E7D002447F9E77002770178C7E675F003A424DB
:100E8D004704F9E77002770178C7E675F003A424EB
:100E9D00472402F9E77002770178C70678C7E62480
:100EAD00FC400302096A78547956E7F6785B8606AA
:100EBD00785DE64206785FE64E704D782676FF78CF
:100ECD0027760078287600C00712015C9000C812C2
:100EDD00101D7826760012015C9000C812101D7846
:100EED002676FF12015C9000C812101D7826760040
:100EFD0012015C9000C812101D782676FF12015C5D
:100F0D009000C812101DD007758201C0071201F69E
:100F1D007582021201F67582031201F6D0077E0169
:100F2D007854C3E69E400D8E82C007C0061201BFE5
:100F3D00D006D0070EEE24FC50E69000C8C0071274
:100F4D00101D7582011201BF7582021201BF7582DB
:100F5D00031201BFD0077854E670037853F674037B
:100F6D005FFEA2B1B39207E43325E025E04206A26D
:100F7D00B0B39207E433C40354F84206EE030354AE
:100F8D003FFFEE24B2F9870678C2EE26F678C80642
:100F9D0078C8B60500404DC00712077212084612F8
:100FAD00015C758200120256D0077855E6602878EC
:100FBD0055167853E675F003A4FE243BF98708EE29
:100FCD00243BFE04F9870974022EF9870A75820005
:100FDD00C00712018ED00775FF0078C8860678C845
:100FED00EE24FBF6900001C00712101DD007020F72
:100FFD0063AE82AF83EE4F6016E5A104F5A1E5A1C6
:10100D0004F5A1E5A104F5A11EBEFF011F80E62296
:10101D00AE82AF83EE4F60159003E8C007C0061295
:0E102D000FFED006D0071EBEFF011F80E72277
:10103C00C007AF82DFFED007227F08C58233D2B44F
:10104C0092B4000000000000C2B40000DFEF22AF39
:10105C0082850D82C007121045D0078F8212104571
:10106C00850E82021045E582FF23235403FE5307AD
:10107C003FAD0F8DF005F0EF800225E0D5F0FBFFC2
:10108C008DF005F0743F800225E0D5F0FB8F04C392
:10109C009CFDBE0002800ABE0102800FBE022080B1
:1010AC00148F0D750E008D8202105B8D0D8F0E75D9
:1010BC00820002105B750D008D0E8F8202105B2278
:1000CA009001007401F0900101E4F0900102F090B7
:1000DA000103F0900104F0900105F0900106F09000
:1000EA000107F0900108F09001097402F090010AEA
:1000FA00E4F090010BF090010CF090010DF09001EA
:0E010A000EF090010FF0900110F0900111F036
:1010CC00AF82BF880040088F06EE2478FE8040BFB8
:1010DC0080004023900101E0FD8F04EC2480F5F0AA
:1010EC0005F07401800225E0D5F0FBFC420590016F
:1010FC0001EDF07E008018EF9018D593FE70012260
:10110C00EE30E70B900101E04402FFF053067F7FC5
:10111C0003EF2400F582E43401F583E0FDB506010C
:10112C00220FBF090040EA7F03EF2400FCE43401E6
:10113C00FD8C828D83E0700F8C828D83EEF07518A0
:10114C000990010002176E0FBF090040DC22AF822C
:10115C00BF880040088F06EE2478FE8041BF8000D7
:10116C004024900101E0FD8F04EC2480F5F005F0A3
:10117C007401800225E0D5F0FBF4FC5205900101CE
:10118C00EDF07E008018EF9018D593FE700122EEE2
:10119C0030E70B900101E054FDFFF053067F7F0315
:1011AC00EF2400FCE43401FD8C828D83E0B506064F
:1011BC008C828D83E4F00FBF090040E47518099010
:1011CC00010002176EAF82C0071210CCD0078F82BD
:1011DC0002115A7F08EF2400F582E43401F583E410
:1011EC00F0DFF275180990010002176EAD82AE8324
:1011FC00AFF08D828E838FF0121847FC60188C82B2
:10120C000DBD00010EC007C006C0051211D1D005DE
:10121C00D006D00780DC22AE82AF837D018F037CA9
:10122C0000ED2409F582E43401F583E0F97A00E954
:10123C00B50624EAB507208D020AEAF93395E0FADF
:10124C00E92409F582EA3401F583E0F97A00E9B57D
:10125C000305EAB50401228D0274022AFDBD0900C2
:10126C0040BF7D01ED2409FBE43401FC8B828C83AF
:10127C00E0703D8D02EA04F83395E0F9E82409F8B2
:10128C00E93401F988828983E070258E018B828C88
:10129C0083E9F00AEA3395E0FCEA2409F582EC34A0
:1012AC0001F5838F04ECF075180990010902176E93
:1012BC008D0474022CFDBD090040A9228582108585
:1012CC0083117D01AB117C00ED2409F9E43401FAA2
:1012DC0089828A83E0F87F00B5103AEFB511368D1C
:1012EC0007EF04F83395E0FEE82409F582EE3401AB
:1012FC00F583E0F87E00B5031CEEB5041889828AEC
:10130C0083E4F00FEF3395E0FEEF2409F582EE3421
:10131C0001F583E4F08D0774022FFDBD090040A890
:10132C0075180990010902176EAE82AF83C007C011
:10133C0006121223D006D0078E828F830212C87F2A
:10134C0008EF2409F582E43401F583E4F0DFF2754B
:0F135C00180990010902176E900052E0F58222E5
:1018D50000000000000000002A2B28000000000086
:1018E50000000000000000000000000000000000F3
:1018F5002C9EB4A0A1A2A434A6A7A5AE362D373838
:10190500271E1F20212223242526B333B62EB7B840
:101915009F8485868788898A8B8C8D8E8F909192FE
:10192500939495969798999A9B9C9D2F3130A3AD4A
:10193500350405060708090A0B0C0D0E0F101112C8
:10194500131415161718191A1B1C1DAFB1B0B500C5
:101955001201100100000040891190880001010268
:101965000301090229000101008019090400000290
:1019750003010104092110012101225F00070581EE
:101985000310000A0705020310000A05010906A154
:10199500018501050719E029E71500250195087559
:1019A50001810295017508810395067508150026C4
:1019B500FF000507190029E7810005081901290518
:1019C5001500250195057501910295017503910392
:1019D500C0050C0901A1018502150026FF031900A8
:1019E5002AFF03950475108100C05F0403090418DC
:1019F5000377006100670069006D0069006E006192
:101A05000074006F00720012034D006100630072E4
:101A1500006F005000610064001403430048003566
:101A2500003500320078004800490044001A034898
:101A350000490044002D004B006500790062006FED
:071A45000061007200640063
:10136B00C007AF8205A290000015A28516828517D3
:10137B0083E493A3A5DFFAD00722AFDBBF0802807B
:10138B0003021643900007E0FE7F00900006E0FD8D
:10139B007C004FF512EC4EF5137F00900001E0F549
:1013AB0014900000E0FE546060057FFF021645E5D7
:1013BB001424F4500302163FE514240B83F582E545
:1013CB0014241083F583E473210F3F803FDEEB3F42
:1013DB00EB06454516151615161413161415161689
:1013EB00900003E0FEBE01028012BE02028017BE17
:1013FB000302801CBE220280690214857516557586
:10140B0017197F1280767516677517197F29806CEF
:10141B00900002E0FE24FB4038EE2E90142A7380DD
:10142B0008800E8014801A80207516F075171980AD
:10143B00267516F4751719801E75160C75171A80FC
:10144B001675161E75171A800E75163275171A80BB
:10145B000675161E75171A851682851783E493FF7A
:10146B00801A900002E0700E75169075171990197E
:10147B00EFE493FF80067FFF80027FFFBFFF030235
:10148B0016458F057E00C3ED9512EE951350048D16
:10149B00128E13AD12AE13C3ED9440EE940092086E
:1014AB0040067D407E008004AD12AE138D078F8207
:1014BB0012136B8F057E00AB12AC13EBC39DFBECD1
:1014CB009EFC8B128C13EF2516F516E43517F517CA
:1014DB00021645900002E0FE8E12751300021645AF
:1014EB00900000E515F0AD12AE13C3ED9401EE9430
:1014FB000050030216457F01021645900002E0F5ED
:10150B0015021645900000E0541F702F900003E069
:10151B00FD7E00900002E0FC7B004206EB4205BE24
:10152B000114BD001190196EE493FE30E503021611
:10153B00457FFF0216457FFF021645900000E0FE37
:10154B0053061F7D00BE0228BD0025900004E0FE5F
:10155B00BE02028005BE8113800653D4730216456A
:10156B0074BC55D24402F5D20216457FFF021645D4
:10157B007FFF021645900000E0541F702F90000370
:10158B00E0FD7E00900002E0FC7B004206EB420592
:10159B00BE0114BD001190196EE493FE30E50302F9
:1015AB0016457FFF0216457FFF021645900000E0AF
:1015BB00FE53061F7D00BE0259BD0056900003E08E
:1015CB00FD7E00900002E0FC7B004206EB4205EE44
:1015DB004D703B900005E0FD7E00900004E0FC7B2D
:1015EB00004206EB4205BE0205BD00028008BE812B
:1015FB0019BD0016800A747F55D4440CF5D4803A7B
:10160B0074BF55D24403F5D280307FFF802C7FFF0F
:10161B0080287FFF8024900000E4F0900001F0AD63
:10162B0012AE13C3ED9402EE940040047F02800AC5
:10163B00AF1280067FFF80027FFFBFFF077514FF8D
:10164B0075DCCF22EF24BF40068FDD75DCC0227521
:10165B00DD0075DCC0227405B5140280467406B536
:10166B00144FAE12AF13C3EE9440EF9400920940A7
:10167B00067E407F008004AE12AF138E8212136B76
:10168B008E057F00AB12AC13EBC39DFBEC9FFC8B69
:10169B00128C13EE2516F516E43517F5178EDD6350
:1016AB00DC4022E5E35480FFE5124FF5E375DC02E5
:1016BB002275DD0075DC022275DD0043DC02223071
:1016CB00D95CE5D9540FFFADD95305307E00BD0071
:1016DB0005BE00028018BD1005BE0002803EBD2075
:1016EB0005BE0002801CBD3033BE00308028BF0019
:1016FB00028005BF022680051216C3801F1217D069
:10170B00801ABF00028005BF01128005121661808E
:10171B000B1217C28006BF0003121385C2D930D833
:10172B000F75DC021217B975E300C2DAC2D9C2D841
:10173B0010DA0122E5DA20E20375D8FF2275E229DF
:10174B0075D181E4F5ECF5ED75DC021217A043E1E0
:0C175B000743D81FD2EAD2AF75DD002290
:02011800C20A19
:1017670012174875D30022AE82AF83200AFD7D0091
:10177700C3ED9518501AED2440FBE43400FCED2E20
:10178700F582E43FF583E0FA8B828C83F00D80E0ED
:101797008518D3D20A53D2FC2275EE4075EF007537
:1017A700E45275E50075D21275D41075EA4075EBF1
:1017B700082275D21275D410C20A2275D30074FCA0
:0A17C70055D24402F5D2C20A2222D4
:06005600E478FFF6D8FD7E
:1017D100E518451960467A01E51825E0F518E5197F
:1017E100334012F519E5829518E583951940030AEE
:1017F10080E6C3E51913F519E51813F518C3E58259
:101801009518F5F0E58395194005F58385F082C3B8
:10181100E51913F519E51813F518DAE1227A10E440
:10182100FBFCE58225E0F582E58333F583EB33FBB1
:10183100EC33FCEB9518F5F0EC95194006FCABF098
:06184100438201DADD2202
:0D0049007581C81218D1E5826003020046DF
:1018470020F71430F6148883A88220F507E6A883CA
:1018570075830022E280F7E49322E022C2D5E58374
:1018670030E70DD2D5E4C39582F582E49583F583FD
:10187700E51930E70BE4C39518F518E49519F51940
:101887001217D130D50BE4C39582F582E49583F521
:101897008322C2D5E58330E70DD2D5E4C39582F51F
:1018A70082E49583F583E51930E70DB2D5E4C39556
:1018B70018F518E49519F51912181E30D50BE4C35D
:0E18C7009582F582E49583F5832275820022D6
:00000001FF
