:04000000020049327F
:01000B0032C2
:0100130032BA
:01001B0032B2
:0100230032AA
:01002B0032A2
:01003300329A
:01003B003292
:030043000200FBBD
:10005C0078537600785476007855760078AE760032
:10006C0078AF760178B076FF78B1760278B276FF09
:10007C0078B3760078B476FE78B5760178B67601EA
:10008C0078B776FE78B8760078B976FF78BA7602CB
:0C009C0078BB76FF78BC760178BD76005A
:0300F800020046BD
:0300460002072589
:1000FB00C022C0E0C0F0C082C083C007C006C005EC
:10010B00C004C003C002C001C000C0D075D0001233
:10011B0015E9D0D0D000D001D002D003D004D00547
:10012B00D006D007D083D082D0F0D0E0D02232C21C
:10013B00AF782686827827860F78288610120F7A5A
:10014B0078298682782A860F782B8610120F7A7878
:10015B002C8682782D860F782E8610120F7AD2AFCE
:10016B0022E582FF701275820112016C75820212F8
:10017B00016C75820302016CEF75F003A4FF24235D
:10018B00F8A608EF2423FF04F8A60974022FF8A69B
:10019B000A22E582FF701275820112019D7582029F
:1001AB0012019D75820302019D7853E675F003A43D
:1001BB00FE243BF98708EE243BFE04F98709740201
:1001CB002EF9870A8F8202016CE582FF701275820D
:1001DB00011201D47582021201D47582030201D47B
:1001EB007853E675F003A4FE242FF98708EE242F2D
:1001FB00FE04F9870974022EF9870A8F8202016CBB
:10020B00AF82C3E51B9F4004851B8222C3EF951A67
:10021B005004851B8222EFC3951AFFC3E51A951B69
:10022B005004851B82228F8222E582FF7012758219
:10023B0001120234758202120234758203020234F7
:10024B00EF75F003A4FF2423F987827853E675F04A
:10025B0003A4FE2447F8861AEE242FF8861BC0074A
:10026B00C00112020BE582D001D007F7EF2423FF68
:10027B0004F987827853E675F003A4FE244704F84B
:10028B00861AEE242F04F8861BC007C00112020B3E
:10029B00E582D001D007F774022FF987827853E6F5
:1002AB0075F003A4FF24472402F8861AEF242F24A9
:1002BB0002F8861BC00112020BE582D001F722AFB8
:1002CB00827E00751A648E1B8F828E83C007C006D8
:1002DB001217B8AC8274302CF5821210F0D006D005
:1002EB0007751A64751B008F828E83C007C00612B8
:1002FB001782751A0A751B001217B8AC8274302C52
:10030B00F5821210F0D006D007751A0A751B008FF4
:10031B00828E83121782AE8274302EF5820210F019
:10032B0075822C1210F07582200210F0AF82785477
:10033B00E624FC500478547603EF70047853F622CD
:10034B007854E624FC40537854E62690035A738085
:10035B00068009800C80247853760022785376032C
:10036B0022C374808FF063F08095F050057853763C
:10037B000222EF30E724785376032278538606EF78
:10038B002E7853F67853E624FC5004785376017894
:10039B0053B6010050047853760322AF827853860C
:1003AB000B8F82C0071203EED0077853E6703378B9
:1003BB0054E624FD400C750B018F82C0071203EE2F
:1003CB00D0077854E624FE400C750B028F82C007D1
:1003DB001203EED0077854E67008750B038F820278
:1003EB0003EE22AF82E4FEFDEF24F450030205116D
:1003FB00EF240A83F582EF241083F583E473112134
:10040B00334A61788FA5BBD1E7FD050404040404CE
:10041B00040404040404E50B75F016A42456F90433
:10042B00F886068705020511E50B75F016A4245610
:10043B00FF2403F9870674022FF98705020511E5DE
:10044B000B75F016A42456FF2405F9870674042FA8
:10045B00F98705020511E50B75F016A42456FF2448
:10046B0007F9870674062FF98705020511E50B7549
:10047B00F016A42456FF2409F9870674082FF98770
:10048B0005020511E50B75F016A42456FF240BF994
:10049B008706740A2FF98705806CE50B75F016A497
:1004AB002456FF240DF98706740C2FF98705805607
:1004BB00E50B75F016A42456FF240FF98706740E6E
:1004CB002FF987058040E50B75F016A42456FF2401
:1004DB0011F9870674102FF98705802AE50B75F043
:1004EB0016A42456FF2412F9870674142FF98705D6
:1004FB008014E50B75F016A42456FF2413F9870618
:10050B0074152FF98705EE700122BDFF02800302DF
:10051B0005E4BEF00050030205D9BEF00050030203
:10052B0005D0EE240250030205D0EE2410FF240A5E
:10053B0083F582EF241283F583E473626E747AD0B1
:10054B0080868C92D098A4D0B005050505050505CD
:10055B0005050505050505758200C006120337D094
:10056B0006806278537601805C78537602805678E9
:10057B00537603805078547600804A785476018005
:10058B004478547602803E7854760380387582FF27
:10059B00C006120337D006802C758201C0061203E9
:1005AB0037D0068020785386047F00751A0A8F1B7C
:1005BB008C828F83C006121782AC8274302CF5822A
:1005CB001210F0D006BEFF01227855763C228E0425
:1005DB007F008C828F830212548D0C8E820205EB6E
:1005EB00AF82E50CFE30E00E758280C007C00612AC
:1005FB000FEBD006D007EE30E10E758281C007C03D
:10060B0006120FEBD006D007EE30E20E758282C0D9
:10061B0007C006120FEBD006D007EE30E30E758243
:10062B0083C007C006120FEBD006D007EE30E40EE6
:10063B00758284C007C006120FEBD006D007EE30D0
:10064B00E50E758285C007C006120FEBD006D007EA
:10065B00EE30E60E758286C007C006120FEBD00691
:10066B00D007EE30E70E758287C007C006120FEB7E
:10067B00D006D0078F82C0061210F0D006EE30E7FE
:10068B000A758287C006121079D006EE30E60A751D
:10069B008286C006121079D006EE30E50A75828587
:1006AB00C006121079D006EE30E40A758284C006BB
:1006BB00121079D006EE30E30A758283C006121051
:1006CB0079D006EE30E20A758282C006121079D01C
:1006DB0006EE30E10A758281C006121079D006EE63
:1006EB0030E00675828002107922AF827585C0EFEB
:1006FB002FF58475868E858E8222900119120F1D1F
:10070B007F0975827FC007120F64D007DFF475E293
:10071B0000C2AF75890012380022C200C201C202AA
:10072B00C2037F0078BE760078BF7600C2047C00DF
:10073B0078C07600C2B45396EF43971020910BC04C
:10074B0007C004120705D004D00775A15575A1AADF
:10075B0053B9F843B90575A100900005C007C00453
:10076B00120F3C121686D004D00775FF0075A155E9
:10077B0075A1AA43B10175A1007A00C004EAC42394
:10078B0054E0FCEA75F016A4FD2456F98C820CC0DB
:10079B0007C005C004C002C0011206F5E582D001F6
:1007AB00D002D004D005F7ED2456FD04F98C820C51
:1007BB00C005C004C002C0011206F5E582D001D00D
:1007CB0002D004D005F774022DF98C820CC005C041
:1007DB0004C002C0011206F5E582D001D002D0049C
:1007EB00D005F774032DF98C820CC005C004C00230
:1007FB00C0011206F5E582D001D002D004D005F776
:10080B0074042DF98C820CC005C004C002C0011207
:10081B0006F5E582D001D002D004D005F774052D82
:10082B00F98C820CC005C004C002C0011206F5E5AC
:10083B0082D001D002D004D005F774062DF98C823A
:10084B000CC005C004C002C0011206F5E582D00140
:10085B00D002D004D005F774072DF98C820CC0059B
:10086B00C004C002C0011206F5E582D001D002D04F
:10087B0004D005F774082DF98C820CC005C004C098
:10088B0002C0011206F5E582D001D002D004D005DA
:10089B00F774092DF98C820CC005C004C002C0018D
:1008AB001206F5E582D001D002D004D005F7740A08
:1008BB002DF98C820CC005C004C002C0011206F5D4
:1008CB00E582D001D002D004D005F7740B2DF98C42
:1008DB00820CC004C002C0011206F5E582D001D023
:1008EB0002D004F7EA75F003A4FD243BF98C820CCB
:1008FB00C005C004C002C0011206F5E582D001D0CC
:10090B0002D004D005F7ED243BFD04F98C820CC01A
:10091B0005C004C002C0011206F5E582D001D00269
:10092B00D004D005F774022DF9ECF58204F50DC057
:10093B0004C002C0011206F5E582D001D002D0043A
:10094B00D007F7D004EA7020E50DF58204FDC0074F
:10095B00C005C004C0021206F5E582D002D004D057
:10096B0005D0077854F68004E50D04FDC004EA7544
:10097B00F016A42456FC240CF98D820DC007C0057B
:10098B00C004C002C0011206F5E582D001D002D02E
:10099B0004D005F7740D2CF98D820DC005C004C071
:1009AB0002C0011206F5E582D001D002D004D005B9
:1009BB00F7740E2CF98D820DC005C004C002C00166
:1009CB001206F5E582D001D002D004D005F7740FE2
:1009DB002CF98D820DC005C004C002C0011206F5B2
:1009EB00E582D001D002D004D005F774102CF98D1C
:1009FB00820DC005C004C002C0011206F5E582D00D
:100A0B0001D002D004D005F774112CF98D820DC0E2
:100A1B0005C004C002C0011206F5E582D001D00268
:100A2B00D004D005F774122CF98D820DC005C004CB
:100A3B00C002C0011206F5E582D001D002D004D06D
:100A4B0005F774132CF98D820DC005C004C002C0CC
:100A5B00011206F5E582D001D002D004D005F7EAE9
:100A6B0075F003A4FE2447F98D820DC006C005C0A6
:100A7B0004C002C0011206F5E582D001D002D004F9
:100A8B00D005D006F7EE2447FB04F98D820DC00686
:100A9B00C005C004C003C002C0011206F5E582D038
:100AAB0001D002D003D004D005F774022BF98D824C
:100ABB000DC005C004C002C0011206F5E582D001CD
:100ACB00D002D004D005F774142CF98D820DC0051B
:100ADB00C004C002C0011206F5E582D001D002D0DD
:100AEB0004D005D006F7EE242FF98D820DC006C079
:100AFB0005C004C002C0011206F5E582D001D00288
:100B0B00D004D005D006F7EE242FFB04F98D820D0F
:100B1B00C006C005C004C003C002C0011206F5E543
:100B2B0082D001D002D003D004D005F774022BF988
:100B3B008D820DC005C004C002C0011206F5E5820E
:100B4B00D001D002D004D005F774152CF98D82C0DA
:100B5B0004C002C0011206F5E582D001D002D00418
:100B6B00D006D007F7EE243BF98705EE243BF50DB5
:100B7B0004F50EA80EE642057402250DF9E74DD0DB
:100B8B00047008A80D76FFA80E7616EA75F003A47C
:100B9B00FE242FF98705EE242FF904F8E64205749D
:100BAB000229FEC000A8068606D000EE4D70047721
:100BBB000C7601EA75F003A42447F9E7700277017C
:100BCB00EA75F003A4244704F9E770027701EA758C
:100BDB00F003A424472402F9E7700277010AEA2400
:100BEB00FC4003020786785786067859E64206785A
:100BFB005BE64E7051782676FF782776007828765C
:100C0B0000C007C00412013A9000C8120F3C7826AE
:100C1B00760012013A9000C8120F3C782676FF122C
:100C2B00013A9000C8120F3C7826760012013A90D8
:100C3B0000C8120F3C782676FF12013A9000C812BA
:100C4B000F3CD004D007758201C007C0041201D439
:100C5B007582021201D47582031201D4D004D0071D
:100C6B007E017854C3E69E40118E82C007C006C039
:100C7B000412019DD004D006D0070EEE24FC50E2E6
:100C8B009000C8C007C004120F3C75820112019D71
:100C9B0075820212019D75820312019DD004D0074B
:100CAB007854E670037853F6A291B39205200001B5
:100CBB00B34002B200A297B39205200101B34002E8
:100CCB00B201A296B39205200201B34002B2027E9A
:100CDB00003000177E01430701758201C007C00673
:100CEB00C00412019DD004D006D007300118430672
:100CFB0002430702758202C007C006C00412019DA1
:100D0B00D004D006D00730021843060443070475FD
:100D1B008203C007C006C00412019DD004D006D0C8
:100D2B0007EE7067EF24F9405AEF2F900D3A73805E
:100D3B0052800A8014802A801C8032803C7582018C
:100D4B00C0041203A6D004803A758202C0041203B9
:100D5B00A6D004802E758203C0041203A6D0048093
:100D6B0022758207C0041203A6D00480167582096F
:100D7B00C0041203A6D004800A758208C0041203B3
:100D8B00A6D0047F0078BE76008018BE071578BE0B
:100D9B000678BEE62437500BC007C004120705D0F7
:100DAB0004D007A2B3B39205200301B3401BB203D7
:100DBB00300302C20420031120040E758204C00705
:100DCB00C0041203A6D004D00774035CFEA2B1B317
:100DDB009205E43325E025E04206A2B0B39205E488
:100DEB0033C40354F84206EE0303543FFCEE24AE27
:100DFB00F9870678C0EE26F67E0078C0C3E66480DD
:100E0B00948440087EFF78C01616161678C0C374FB
:100E1B007C86F063F08095F040087E0178C0E62474
:100E2B0004F6300363EE6032D204C374808EF06339
:100E3B00F08095F0501275820BC007C006C00412EB
:100E4B0003A6D004D006D007EE30E70E75820AC099
:100E5B0007C0041203A6D004D0077854E6605D786F
:100E6B00BFE624375010758200C007C00412033749
:100E7B00D004D007D20430040A7855763C78BF767C
:100E8B0000803978BF068034C374808EF063F080A5
:100E9B0095F05012758206C007C006C0041203A657
:100EAB00D004D006D007EE30E70E758205C007C020
:100EBB00041203A6D004D00778BF7600C007C00485
:100ECB0012013A758200120234D004D0077855E62D
:100EDB00602C7855167853E675F003A4FE243BF985
:100EEB008708EE243BFE04F9870974022EF9870A62
:100EFB00758200C007C00412016CD004D0079000AB
:100F0B0005C007C004120F3CD004D00775FF0002C8
:100F1B000CABAE82AF83EE4F6016E5A104F5A1E5F5
:100F2B00A104F5A1E5A104F5A11EBEFF011F80E6FA
:100F3B0022AE82AF83EE4F60159003E8C007C00668
:0F0F4B00120F1DD006D0071EBEFF011F80E72228
:100F5B00C007AF82DFFED007227F08C58233D2B431
:100F6B0092B4000000000000C2B40000DFEF22AF1B
:100F7B0082850F82C007120F64D0078F82120F6415
:100F8B00851082020F64E582FF23235403FE53076F
:100F9B003FAD118DF005F0EF800225E0D5F0FBFFA2
:100FAB008DF005F0743F800225E0D5F0FB8F04C374
:100FBB009CFDBE0002800ABE0102800FBE02208093
:100FCB00148F0F7510008D82020F7A8D0F8F107595
:100FDB008200020F7A750F008D108F82020F7A221A
:1000A8009001007401F0900101E4F0900102F090D9
:1000B8000103F0900104F0900105F0900106F09022
:1000C8000107F0900108F09001097402F090010A0C
:1000D800E4F090010BF090010CF090010DF090010C
:0E00E8000EF090010FF0900110F0900111F059
:100FEB00AF82BF880040088F06EE2478FE8040BF9A
:100FFB0080004023900101E0FD8F04EC2480F5F08C
:10100B0005F07401800225E0D5F0FBFC4205900150
:10101B0001EDF07E008018EF9017F493FE70012223
:10102B00EE30E70B900101E04402FFF053067F7FA7
:10103B0003EF2400F582E43401F583E0FDB50601EE
:10104B00220FBF090040EA7F03EF2400FCE43401C8
:10105B00FD8C828D83E0700F8C828D83EEF0751A80
:10106B000990010002168D0FBF090040DC22AF82F0
:10107B00BF880040088F06EE2478FE8041BF8000B9
:10108B004024900101E0FD8F04EC2480F5F005F085
:10109B007401800225E0D5F0FBF4FC5205900101B0
:1010AB00EDF07E008018EF9017F493FE700122EEA6
:1010BB0030E70B900101E054FDFFF053067F7F03F7
:1010CB00EF2400FCE43401FD8C828D83E0B5060631
:1010DB008C828D83E4F00FBF090040E4751A0990F0
:1010EB00010002168DAF82C007120FEBD0078F8263
:1010FB000210797F08EF2400F582E43401F583E4D4
:10110B00F0DFF2751A0990010002168DAD82AE83E5
:10111B00AFF08D828E838FF0121766FC60188C8275
:10112B000DBD00010EC007C006C0051210F0D005A2
:10113B00D006D00780DC22AE82AF837D018F037C8B
:10114B0000ED2409F582E43401F583E0F97A00E936
:10115B00B50624EAB507208D020AEAF93395E0FAC1
:10116B00E92409F582EA3401F583E0F97A00E9B55F
:10117B000305EAB50401228D0274022AFDBD0900A4
:10118B0040BF7D01ED2409FBE43401FC8B828C8391
:10119B00E0703D8D02EA04F83395E0F9E82409F894
:1011AB00E93401F988828983E070258E018B828C6A
:1011BB0083E9F00AEA3395E0FCEA2409F582EC3482
:1011CB0001F5838F04ECF0751A0990010902168D55
:1011DB008D0474022CFDBD090040A9228582128565
:1011EB0083137D01AB137C00ED2409F9E43401FA80
:1011FB0089828A83E0F87F00B5123AEFB513368DFA
:10120B0007EF04F83395E0FEE82409F582EE34018C
:10121B00F583E0F87E00B5031CEEB5041889828ACD
:10122B0083E4F00FEF3395E0FEEF2409F582EE3403
:10123B0001F583E4F08D0774022FFDBD090040A872
:10124B00751A0990010902168DAE82AF83C007C0D3
:10125B0006121142D006D0078E828F830211E77FD0
:10126B0008EF2409F582E43401F583E4F0DFF2752D
:0F127B001A0990010902168D900052E0F58222A7
:1017F40000000000000000002A2B28000000000068
:1018040000000000000000000000000000000000D4
:101814002C9EB4A0A1A2A434A6A7A5AE362D373819
:10182400271E1F20212223242526B333B62EB7B822
:101834009F8485868788898A8B8C8D8E8F909192E0
:10184400939495969798999A9B9C9D2F3130A3AD2C
:10185400350405060708090A0B0C0D0E0F101112AA
:10186400131415161718191A1B1C1DAFB1B0B500A7
:10187400120110010000004089119088000101024A
:101884000301090229000101008019090400000272
:1018940003010104092110012101225F00070581D0
:1018A4000310000A0705020310000A05010906A136
:1018B400018501050719E029E7150025019508753B
:1018C40001810295017508810395067508150026A6
:1018D400FF000507190029E78100050819012905FA
:1018E4001500250195057501910295017503910374
:1018F400C0050C0901A1018502150026FF0319008A
:101904002AFF03950475108100C05F0403090418BD
:101914000377006100670069006D0069006E006173
:101924000074006F00720012034D006100630072C6
:10193400006F005000610064001403430048003548
:10194400003500320078004800490044001A03487A
:1019540000490044002D004B006500790062006FCF
:071964000061007200640045
:10128A00C007AF8205A290000015A28518828519B1
:10129A0083E493A3A5DFFAD00722AFDBBF0802805D
:1012AA0003021562900007E0FE7F00900006E0FD51
:1012BA007C004FF514EC4EF5157F00900001E0F527
:1012CA0016900000E0FE546060057FFF021564E599
:1012DA001624F4500302155EE516240B83F582E505
:1012EA0016241083F583E473402E5E9F5EFD0A5E2A
:1012FA000A256464151415141513131514141515F9
:10130A00900003E0FEBE01028012BE02028017BEF8
:10131A000302801CBE220280690213A47518747528
:10132A0019187F1280767518867519187F29806CAE
:10133A00900002E0FE24FB4038EE2E9013497380A1
:10134A0008800E8014801A802075180F751919806C
:10135A0026751813751919801E75182B7519198099
:10136A001675183D751919800E7518517519198059
:10137A000675183D751919851882851983E493FF36
:10138A00801A900002E0700E7518AF75191890193E
:10139A000EE493FF80067FFF80027FFFBFFF0302F8
:1013AA0015648F057E00C3ED9514EE951550048DD6
:1013BA00148E15AD14AE15C3ED9440EE940092064A
:1013CA0040067D407E008004AD14AE158D078F82E5
:1013DA0012128A8F057E00AB14AC15EBC39DFBEC91
:1013EA009EFC8B148C15EF2518F518E43519F519A0
:1013FA00021564900002E0FE8E1475150002156451
:10140A00900000E517F0AD14AE15C3ED9401EE940B
:10141A000050030215647F01021564900002E0F592
:10142A0017021564900000E0541F702F900003E02B
:10143A00FD7E00900002E0FC7B004206EB4205BE06
:10144A000114BD001190188DE493FE30E5030215D6
:10145A00647FFF0215647FFF021564900000E0FEBE
:10146A0053061F7D00BE0228BD0025900004E0FE41
:10147A00BE02028005BE8113800653D4730215642E
:10148A0074BC55D24402F5D20215647FFF0215647A
:10149A007FFF021564900000E0541F702F90000334
:1014AA00E0FD7E00900002E0FC7B004206EB420574
:1014BA00BE0114BD001190188DE493FE30E50302BD
:1014CA0015647FFF0215647FFF021564900000E037
:1014DA00FE53061F7D00BE0259BD0056900003E070
:1014EA00FD7E00900002E0FC7B004206EB4205EE26
:1014FA004D703B900005E0FD7E00900004E0FC7B0F
:10150A00004206EB4205BE0205BD00028008BE810C
:10151A0019BD0016800A747F55D4440CF5D4803A5C
:10152A0074BF55D24403F5D280307FFF802C7FFFF1
:10153A0080287FFF8024900000E4F0900001F0AD45
:10154A0014AE15C3ED9402EE940040047F02800AA3
:10155A00AF1480067FFF80027FFFBFFF077516FF6B
:10156A0075DCCF22EF24BF40068FDD75DCC0227503
:10157A00DD0075DCC0227405B5160280467406B516
:10158A00164FAE14AF15C3EE9440EF940092074085
:10159A00067E407F008004AE14AF158E8212128A36
:1015AA008E057F00AB14AC15EBC39DFBEC9FFC8B47
:1015BA00148C15EE2518F518E43519F5198EDD6326
:1015CA00DC4022E5E35480FFE5144FF5E375DC02C5
:1015DA002275DD0075DC022275DD0043DC02223053
:1015EA00D95CE5D9540FFFADD95305307E00BD0053
:1015FA0005BE00028018BD1005BE0002803EBD2057
:10160A0005BE0002801CBD3033BE00308028BF00FA
:10161A00028005BF022680051215E2801F1216EF0E
:10162A00801ABF00028005BF011280051215808052
:10163A000B1216E18006BF00031212A4C2D930D8D9
:10164A000F75DC021216D875E300C2DAC2D9C2D805
:10165A0010DA0122E5DA20E20375D8FF2275E229C1
:10166A0075D181E4F5ECF5ED75DC021216BF43E1A4
:0C167A000743D81FD2EAD2AF75DD002272
:0200F600C2083E
:1016860012166775D30022AE82AF832008FD7D0057
:10169600C3ED951A501AED2440FBE43400FCED2E00
:1016A600F582E43FF583E0FA8B828C83F00D80E0CF
:1016B600851AD3D20853D2FC2275EE4075EF007519
:1016C600E45275E50075D21275D41075EA4075EBD3
:1016D600082275D21275D410C2082275D30074FC84
:0A16E60055D24402F5D2C2082222B8
:06005600E478FFF6D8FD7E
:1016F000E51A451B60467A01E51A25E0F51AE51B57
:10170000334012F51BE582951AE583951B40030AC9
:1017100080E6C3E51B13F51BE51A13F51AC3E58232
:10172000951AF5F0E583951B4005F58385F082C396
:10173000E51B13F51BE51A13F51ADAE1227A10E41A
:10174000FBFCE58225E0F582E58333F583EB33FB93
:10175000EC33FCEB951AF5F0EC951B4006FCABF076
:06176000438201DADD22E4
:0D0049007581C01217F0E5826003020046C9
:1017660020F71430F6148883A88220F507E6A883AC
:1017760075830022E280F7E49322E022C2D5E58356
:1017860030E70DD2D5E4C39582F582E49583F583DF
:10179600E51B30E70BE4C3951AF51AE4951BF51B18
:1017A6001216F030D50BE4C39582F582E49583F5E5
:1017B6008322C2D5E58330E70DD2D5E4C39582F501
:1017C60082E49583F583E51B30E70DB2D5E4C39536
:1017D6001AF51AE4951BF51B12173D30D50BE4C319
:0E17E6009582F582E49583F5832275820022B8
:00000001FF
